:020000040800F2
:10000000000003204103000885030008B90300082D
:100010008503000885030008850300080000000030
:100020000000000000000000000000005111000866
:10003000850300080000000061130008C9130008D0
:100040008503000885030008850300088503000870
:10005000850300088503000885040008850300085F
:100060008503000885030008850300088503000850
:10007000850300086D0E000885030008F50D0008D3
:100080008503000885030008850300088503000830
:100090008503000885030008850300088503000820
:1000A0008503000885030008850300088503000810
:1000B0008503000885030008850300088503000800
:1000C00085030008850300088503000885030008F0
:1000D00085030008850300088503000885030008E0
:1000E00085030008850300088503000885030008D0
:1000F00085030008850300088503000885030008C0
:1001000085030008850300088503000885030008AF
:10011000850300088503000885030008850300089F
:10012000850300088503000885030008850300088F
:10013000850300088503000885030008850300087F
:10014000850300088503000885030008850300086F
:10015000850300088503000885030008850300085F
:10016000850300088503000885030008850300084F
:10017000850300088503000885030008850300083F
:10018000850300088503000885030008850300082F
:10019000850300088503000885030008850300081F
:0C01A000850300088503000885030008A3
:1001B00010B5054C237833B9044B13B10448AFF3A1
:1001C00000800123237010BD4804002000000000BF
:1001D000CC350008084B10B51BB108490848AFF3EF
:1001E00000800848036803B910BD074B002BFBD003
:1001F000BDE81040184700BF000000004C0400207C
:10020000CC3500084804002000000000844641EA84
:10021000000313F003036DD1403A41D351F8043B7E
:1002200040F8043B51F8043B40F8043B51F8043BD0
:1002300040F8043B51F8043B40F8043B51F8043BC0
:1002400040F8043B51F8043B40F8043B51F8043BB0
:1002500040F8043B51F8043B40F8043B51F8043BA0
:1002600040F8043B51F8043B40F8043B51F8043B90
:1002700040F8043B51F8043B40F8043B51F8043B80
:1002800040F8043B51F8043B40F8043B51F8043B70
:1002900040F8043B51F8043B40F8043B403ABDD2DF
:1002A000303211D351F8043B40F8043B51F8043B81
:1002B00040F8043B51F8043B40F8043B51F8043B40
:1002C00040F8043B103AEDD20C3205D351F8043B10
:1002D00040F8043B043AF9D2043208D0D2071CBFDC
:1002E00011F8013B00F8013B01D30B880380604605
:1002F000704700BF082A13D38B078DD010F003037B
:100300008AD0C3F10403D21ADB071CBF11F8013BEA
:1003100000F8013B80D331F8023B20F8023B7BE739
:10032000043AD9D3013A11F8013B00F8013BF9D264
:100330000B7803704B7843708B78837060467047FE
:10034000002103E00A4B5B584350043109480A4B33
:1003500042189A42F6D3094A02E0002342F8043BCD
:10036000074B9A42F9D300F0EDF800F00DF8704712
:100370001436000800000020480400204804002033
:100380000C320120FEE7000080B500AF00F008F855
:1003900000F09AF801F0D4FF0023184680BD00BF9A
:1003A00080B500AF00F0CEF800F002F900F04CF894
:1003B00000F006F800BF80BD80B400AFFEE700BFCC
:1003C00080B586B000AF0121012000F091FC01232F
:1003D0003B610023BB7500233B750023FB750323A2
:1003E0007B7507F110031946164800F08DFB0121BB
:1003F0004FF4804000F09CFC0021002000F0B8FC8D
:100400000123BB6000233B7308237B730123BB7371
:1004100007F10803184600F0DBFA4FF4407000F0D3
:10042000DBF906233B710F237B710023BB71012392
:10043000FB713B1D184600F0E3F900BF1837BD46BD
:1004400080BD00BF0000024080B582B000AF012136
:10045000402000F04DFC4FF4C0433B600023BB71D3
:1004600001233B710023FB7103237B713B4619463B
:10047000034800F049FB00BF0837BD4680BD00BF00
:100480000018024080B582B000AF00237B600120DD
:1004900000F010FB0346002B04D000F047F80120C9
:1004A00000F022FB7B68002B07D0064B4FF08052F8
:1004B0001A60BFF34F8FBFF36F8F00BF0837BD4681
:1004C00080BD00BF04ED00E080B582B002AF002324
:1004D000019300230093002382220349034801F083
:1004E0007FFD00BFBD4680BDE4350008F104000873
:1004F00080B584B000AF786002F018F80346FB6066
:1005000007F10C034FF4FA71184601F09FFE00F05A
:1005100001F8F5E780B500AF4FF40051024800F054
:1005200081FB00BF80BD00BF0018024080B500AF56
:100530004FF48041024800F075FB00BF80BD00BF52
:100540000018024080B500AF164A164BD3F8883029
:1005500043F47003C2F88830134A134B1B6843F00E
:1005600001031360104B00229A600F4A0E4B1B6868
:1005700023F0847323F4803313600B4B0B4A5A60CF
:10058000094A094B1B6823F480231360064B0022A1
:10059000DA6000F08BF8034B4FF000629A6000BF06
:1005A00080BD00BF00ED00E00038024010300024A4
:1005B00080B487B000AF00233B6100237B6102233E
:1005C000FB600023BB6002237B60334B9B6803F01E
:1005D0000C033B613B69042B07D0082B09D0002B8F
:1005E0003FD12E4B2E4A1A603FE02C4B2D4A1A6009
:1005F0003BE0294B5B6803F480039B0DBB60264BFB
:100600005B6803F03F037B60BB68002B0DD0254A7D
:100610007B68B2FBF3F2204B596847F6C0730B407E
:100620009B0903FB02F37B610CE01D4A7B68B2FB74
:10063000F3F2194B596847F6C0730B409B0903FB53
:1006400002F37B61144B5B6803F440331B0C0133F2
:100650005B00FB607A69FB68B2FBF3F30F4A13603F
:1006600003E00E4B0E4A1A6000BF0B4B9B6803F071
:10067000F0031B090C4AD35CDBB23B61074B1A68E1
:100680003B6922FA03F3054A136000BF1C37BD46DD
:100690005DF8047B704700BF003802400000002076
:1006A00080A8120100127A000400002080B483B0F8
:1006B00000AF00237B6000233B60434A424B1B6832
:1006C00043F480331360404B1B6803F400333B60FA
:1006D0007B6801337B603B68002B03D17B68B3F5FB
:1006E000A04FF0D1384B1B6803F40033002B02D02D
:1006F00001233B6001E000233B603B68012B5CD1A0
:10070000314A314B1B6C43F0805313642F4A2F4BFB
:100710001B6843F4404313602B4A2B4B9B68936048
:10072000294A294B9B6843F400439360264A264B91
:100730009B6843F4A0539360234B254A5A60224A96
:10074000214B1B6843F08073136000BF1E4B1B6876
:1007500003F00073002BF9D01C4A1C4B1B6843F4B8
:100760008033136000BF194B5B6803F48033002BA8
:10077000F9D0164A154B1B6843F40033136000BFD1
:10078000124B5B6803F40033002BF9D0114B40F29D
:1007900005721A600C4A0C4B9B6823F003039360AC
:1007A000094A094B9B6843F00203936000BF064B64
:1007B0009B6803F00C03082BF9D100BF0C37BD4632
:1007C0005DF8047B704700BF0038024000700040B5
:1007D000085A4007003C024080B483B000AF786004
:1007E000064A7B6843F0BF6343F40033D36000BF25
:1007F0000C37BD465DF8047B704700BF00ED00E09C
:1008000080B485B000AF78600023FB730023BB7316
:100810000F237B737B68DB78002B38D0274BDB689A
:10082000DB4303F4E0631B0AFB73FB7BC3F10403AC
:10083000BB737A7BFB7B42FA03F37B737B685B7849
:100840001A46BB7B02FA03F3FB737B689A787B7BC7
:100850001340DAB2FB7B1343FB73FB7B1B01FB737F
:10086000174A7B681B781344FA7B83F80023144AE9
:100870007B681B785B09DBB218467B681B7803F04A
:100880001F03012101FA03F342F820300FE00C4965
:100890007B681B785B09DBB218467B681B7803F02A
:1008A0001F0301229A4000F1200341F8232000BFDA
:1008B0001437BD465DF8047B704700BF00ED00E0D3
:1008C00000E100E080B483B000AF78600B46FB70BD
:1008D000FB78002B06D07B681B6843F001027B6825
:1008E0001A6005E07B681B6823F001027B681A60D0
:1008F00000BF0C37BD465DF8047B704780B487B0FD
:1009000000AF786039600023FB750023FB607B68D3
:10091000154A934202D8154B3B6101E0144B3B61F1
:100920003B6803F00053002B03D03B695B68FB601E
:1009300002E03B691B68FB60FB6823F0F02323F0B7
:100940008213FB60FA683B681340002B02D001233E
:10095000FB7501E00023FB75FB7D18461C37BD4687
:100960005DF8047B704700BF0F64024000600240E6
:100970000064024080B485B000AF786039607B6865
:10098000104A934202D8104BFB6001E00F4BFB6012
:100990003B6803F00053002B07D03B6823F0F023A3
:1009A00023F08213FA68D36006E03B6823F0F0235B
:1009B00023F08213FA68936000BF1437BD465DF8D8
:1009C000047B70470F6402400060024000640240F4
:1009D00080B485B000AF78600023FB60344BFB60CF
:1009E0007B689B79002B4FD03149314B1A687B686B
:1009F0001B68DB4313400B602D492D4B5A687B6805
:100A00001B68DB4313404B607B681B791A46FB680D
:100A10001344FB60FB68FA6811687A6812680A433D
:100A20001A602349224B9A687B681B68DB4313409A
:100A30008B601F491E4BDA687B681B68DB431340E1
:100A4000CB607B685B79102B0ED11949184B9A68E3
:100A50007B681B6813438B601549154BDA687B680C
:100A60001B681343CB601DE0114BFB607B685B7917
:100A70001A46FB681344FB60FB68FA6811687A68E1
:100A800012680A431A600DE07B681B791A46FB68FE
:100A90001344FB60FB68FA6811687A681268D243F5
:100AA0000A401A6000BF1437BD465DF8047B7047EA
:100AB000003C014080B485B000AF78600023FB7338
:100AC000084B5A697B681340002B02D00123FB734B
:100AD00001E00023FB73FB7B18461437BD465DF82D
:100AE000047B7047003C014080B483B000AF786065
:100AF000044A7B68536100BF0C37BD465DF8047B38
:100B0000704700BF003C014080B487B000AF786000
:100B1000396000237B6100233B610023FB600023DD
:100B20007B6176E001227B6902FA03F33B613B685B
:100B30001A683B691340FB60FA683B699A4265D1C9
:100B40007B681A687B695B00032101FA03F3DB43CE
:100B50001A407B681A607B681A683B681B791946E3
:100B60007B695B0001FA03F31A437B681A603B68F8
:100B70001B79012B03D03B681B79022B2ED17B689C
:100B80009A687B695B00032101FA03F3DB431A4097
:100B90007B689A607B689A683B685B7919467B69D9
:100BA0005B0001FA03F31A437B689A607B685A681A
:100BB0007B699BB2194601238B40DB431A407B685B
:100BC0005A607B685B683A68927911467A6992B29A
:100BD00001FA02F292B21A437B685A607B68DA68C3
:100BE0007B699BB25B00032101FA03F3DB431A40EC
:100BF0007B68DA607B68DA683B68DB7919467B6979
:100C00005B0001FA03F31A437B68DA607B69013306
:100C10007B617B690F2B85D900BF1C37BD465DF812
:100C2000047B704780B483B000AF78600B467B8054
:100C30007B685A697B885A407B685A6100BF0C37D1
:100C4000BD465DF8047B704780B483B000AF786028
:100C50000B46FB70FB78002B08D07B681B889BB28F
:100C600043F400739AB27B681A8007E07B681B88A4
:100C70009BB223F400739AB27B681A8000BF0C37D2
:100C8000BD465DF8047B704780B487B000AF7860E4
:100C900039600023FB7500233B610023FB607B6808
:100CA000FB603B681B0F3B613B6823F07F433B606D
:100CB0003B69002B03D0FB681433FB6005E03B6805
:100CC0001B0C3B60FB681833FB60FB681A683B68D1
:100CD0001340002B02D00123FB7501E00023FB75BC
:100CE000FB7D18461C37BD465DF8047B704700BF8E
:100CF00080B483B000AF78600B46FB70FB78002BAC
:100D000006D00A49094B1A6B7B6813430B6306E054
:100D10000649064B1A6B7B68DB4313400B6300BF2D
:100D20000C37BD465DF8047B704700BF00380240B9
:100D300080B483B000AF78600B46FB70FB78002B6B
:100D400006D00A49094B5A6C7B6813434B6406E092
:100D50000649064B5A6C7B68DB4313404B6400BF6B
:100D60000C37BD465DF8047B704700BF0038024079
:100D700090B484B000AF03460A46FB711346BB71C2
:100D80000023FB60BB7903F003039B000F2202FAF0
:100D900003F3FB601649BB799B08DBB21846144A83
:100DA000BB799B08DBB2023352F82320FB68DB439C
:100DB0001A40831C41F823200D48BB799B08DBB205
:100DC0001C460B4ABB799B08DBB2023352F8232046
:100DD000F979BB7903F003039B0001FA03F31A438B
:100DE000A31C40F8232000BF1037BD4690BC7047BD
:100DF0000038014080B500AF16491748FFF77EFD67
:100E00000346002B24D000211348FFF75BFD114956
:100E10001148FFF7AFFD114B4FF420421A6008E074
:100E20000E4B1B685A1E0D490A60002B01D100F0C1
:100E300041F80B490B48FFF727FF0346002BEFD083
:100E400001210848FFF700FF074B1B6800221A70BA
:100E500000BF80BD20000020706002401400002010
:100E600004000010005C0040C031012080B500AFDC
:100E70004FF081510C48FFF741FD0346002B10D085
:100E800001210A48FFF7E0FE00210748FFF71AFD9D
:100E90004FF081510448FFF76DFD054B1B680022A0
:100EA0001A8000BF80BD00BF40600240005C00406F
:100EB000C831012080B400AFFEE700BF80B588B024
:100EC00000AF786000237B6101F086FA3D4B1B6820
:100ED000002B04D100F0BAF83A4B01221A607B686B
:100EE000002B0ED008231A467B6813447B607B6876
:100EF00003F00703002B04D07B6823F007030833BB
:100F00007B607B68002B56D07B682F4A934252D877
:100F10002E4BBB612D4B1B68FB6104E0FB69BB6181
:100F2000FB691B68FB61FB695A687B689A4203D2C4
:100F3000FB691B68002BF1D1FB69254A93423AD02B
:100F4000BB691B68082213447B61FB691A68BB6993
:100F50001A60FB695A687B68D31A082252009342D0
:100F600022D9FA697B681344FB60FB695A687B6885
:100F7000D21AFB685A60FB697A685A60FB685B6842
:100F8000BB60124B3B6102E03B691B683B613B6904
:100F90001B685A68BB689A42F6D33B691A68FB68BB
:100FA0001A603B69FA681A600A4B1A68FB695B6849
:100FB000D31A084A136001F01DFA7B6918462037DE
:100FC000BD4680BD74300120F72B01006430012044
:100FD0006C3001201800002080B586B000AF78602A
:100FE0007B683B617B68002B27D008235B423A6912
:100FF00013443B613B69FB6001F0EEF9FB685B6801
:10100000BB60104B7B6102E07B691B687B617B6985
:101010001B685A68BB689A42F6D37B691A68FB68FA
:101020001A607B69FA681A60FB685A68064B1B688D
:101030001344054A136001F0DDF900BF1837BD46BF
:1010400080BD00BF643001201800002080B483B050
:1010500000AF0F4B23F007037B600E4A7B681360E1
:101060000C4B00225A600C4B0C4A5A600A4B00226F
:101070001A607B683B603B68084A5A603B68064AD6
:101080001A6000BF0C37BD465DF8047B704700BF97
:101090006C040020643001206C300120F82B01002A
:1010A00080B485B000AFF860B9607A60FB68043B3B
:1010B000FB60FB684FF080721A60FB68043BFB60CA
:1010C000BB6823F00102FB681A60FB68043BFB600D
:1010D0000C4AFB681A60FB68143BFB607A68FB688B
:1010E0001A60FB68043BFB60FB686FF002021A6049
:1010F000FB68203BFB60FB6818461437BD465DF873
:10110000047B70470911000880B483B000AF0C4B1A
:101110001B68B3F1FF3F09D04FF0500383F31188F0
:10112000BFF36F8FBFF34F8F3B60FEE74FF050036D
:1011300083F31188BFF36F8FBFF34F8F7B60FEE7A0
:101140001C00002000000000000000000000000063
:10115000074B19680868B0E8F04F80F30988BFF3BF
:101160006F8F4FF0000080F311887047AFF300805D
:101170008030012000BF00BF06480068006880F38F
:10118000088862B661B6BFF34F8FBFF36F8F00DF81
:1011900000BF00BF08ED00E080B586B000AF3B4B5C
:1011A0001B683B4A934209D14FF0500383F31188E7
:1011B000BFF36F8FBFF34F8FFB60FEE7334B1B68AE
:1011C000344A934209D14FF0500383F31188BFF39F
:1011D0006F8FBFF34F8F3B61FEE72F4B7B617B69C6
:1011E0001B78DBB2BB607B69FF221A707B691B78BE
:1011F000DBB2FB71FB79DBB203F05003DAB2274BB1
:101200001A70274B07221A6009E0254B1B68013B27
:10121000234A1360FB79DBB25B00DBB2FB71FB7925
:10122000DBB25BB2002BF0DB1D4B1B681B021C4AC0
:1012300013601B4B1B6803F4E063194A1360BB681F
:10124000DAB27B691A70174A164B1B6843F47003B5
:101250001360144A134B1B6843F07043136000F093
:10126000D3F8114B00221A6000F0EAF80F4A0F4B36
:101270001B6843F040431360FFF77EFFFFF744FF16
:10128000002318461837BD4680BD00BF00ED00E0C2
:1012900071C20F4170C20F4100E400E078300120BC
:1012A0007C30012020ED00E01C00002034EF00E045
:1012B00080B483B000AF4FF0500383F31188BFF3C5
:1012C0006F8FBFF34F8F3B600E4B1B6801330D4A8E
:1012D00013600C4B1B68012B0ED10B4B1B68DBB250
:1012E000002B09D04FF0500383F31188BFF36F8FA9
:1012F000BFF34F8F7B60FEE700BF0C37BD465DF844
:10130000047B70471C00002004ED00E080B483B033
:1013100000AF114B1B68002B09D14FF0500383F332
:101320001188BFF36F8FBFF34F8F3B60FEE70A4B0F
:101330001B68013B084A1360074B1B68002B04D154
:1013400000237B607B6883F3118800BF0C37BD46A8
:101350005DF8047B704700BF1C0000200000000007
:10136000EFF30980BFF36F8F154B1A681EF0100F53
:1013700008BF20ED108A20E9F04F10604DF8043DC1
:101380004FF0500080F31188BFF34F8FBFF36F8F82
:1013900001F098F94FF0000080F3118808BC19683B
:1013A0000868B0E8F04F1EF0100F08BFB0EC108ACC
:1013B00080F30988BFF36F8F704700BFAFF30080E1
:1013C0008030012000BF00BF80B582B000AF4FF079
:1013D000500383F31188BFF36F8FBFF34F8F3B60D0
:1013E00001F0B4F80346002B03D0064B4FF08052B7
:1013F0001A6000237B607B6883F3118800BF083785
:10140000BD4680BD04ED00E080B400AF084A094B42
:101410001B680949A1FB03139B09013B1360074BA0
:1014200007221A6000BFBD465DF8047B704700BF0D
:1014300014E000E000000020D34D621010E000E056
:10144000DFF80C00016841F470010160704700BFD3
:1014500088ED00E080B485B000AFEFF30583FB605A
:10146000FB680F2B13D9164AFB6813441B78FB72D9
:10147000144B1B78FA7A9A4209D24FF0500383F347
:101480001188BFF36F8FBFF34F8F3B60FEE70E4BAA
:101490001B6803F4E0620D4B1B689A4209D94FF0B8
:1014A000500383F31188BFF36F8FBFF34F8F7B60BF
:1014B000FEE700BF1437BD465DF8047B704700BFF0
:1014C000F0E300E0783001200CED00E07C300120FA
:1014D00080B483B000AF78607B6803F108027B685A
:1014E0005A607B684FF0FF329A607B6803F1080214
:1014F0007B68DA607B6803F108027B681A617B68AD
:1015000000221A6000BF0C37BD465DF8047B7047AF
:1015100080B483B000AF78607B6800221A6100BF9E
:101520000C37BD465DF8047B704700BF80B485B0C2
:1015300000AF786039607B685B68FB603B68FA6885
:101540005A60FB689A683B689A60FB689B683A68D7
:101550005A60FB683A689A603B687A681A617B68EF
:101560001B685A1C7B681A6000BF1437BD465DF8C3
:10157000047B704780B485B000AF786039603B6809
:101580001B68BB60BB68B3F1FF3F03D17B681B697D
:10159000FB600CE07B680833FB6002E0FB685B6883
:1015A000FB60FB685B681A68BB689A42F6D9FB6807
:1015B0005A683B685A603B685B683A689A603B6867
:1015C000FA689A60FB683A685A603B687A681A6100
:1015D0007B681B685A1C7B681A6000BF1437BD46C5
:1015E0005DF8047B704700BF80B485B000AF7860C1
:1015F0007B681B69FB607B685B687A6892689A60AD
:101600007B689B687A6852685A60FB685A687B6896
:101610009A4203D17B689A68FB685A607B68002213
:101620001A61FB681B685A1EFB681A60FB681B681E
:1016300018461437BD465DF8047B704780B584B00A
:1016400000AF786039607B68FB60FB68002B09D1D4
:101650004FF0500383F31188BFF36F8FBFF34F8FA9
:10166000BB60FEE7FFF724FEFB681A68FB68DB6BD4
:10167000F968096C01FB03F31A44FB685A60FB68C4
:1016800000229A63FB681A68FB689A60FB681A6814
:10169000FB68DB6B013BF968096C01FB03F31A443F
:1016A000FB68DA60FB68FF2283F84420FB68FF22B6
:1016B00083F845203B68002B14D1FB681B69002B85
:1016C0001AD0FB681033184601F0A4F80346002B2B
:1016D00012D00D4B4FF080521A60BFF34F8FBFF303
:1016E0006F8F09E0FB6810331846FFF7F1FEFB68C7
:1016F00024331846FFF7ECFEFFF708FE01231846D7
:101700001037BD4680BD00BF04ED00E080B58AB053
:1017100002AFF860B9601346FB71FB68002B09D17A
:101720004FF0500383F31188BFF36F8FBFF34F8FD8
:101730003B61FEE7BB68002B02D10023FB6104E0A4
:10174000FB68BA6802FB03F3FB61FB695033184680
:10175000FFF7B4FBB861BB69002B0BD0BB695033FA
:101760007B61FA79BB69009313467A69B968F868B6
:1017700000F006F8BB6918462037BD4680BD00BFA3
:1017800080B584B000AFF860B9607A60FB70BB6868
:10179000002B03D1BB69BA691A6002E0BB697A68A1
:1017A0001A60BB69FA68DA63BB69BA681A64012116
:1017B000B869FFF743FFBB69FA7883F84C2000BF94
:1017C0001037BD4680BD00BF80B58EB000AFF86059
:1017D000B9607A603B6000237B63FB683B633B6BD3
:1017E000002B09D14FF0500383F31188BFF36F8FA3
:1017F000BFF34F8FFB61FEE7BB68002B03D13B6B50
:101800001B6C002B01D1012300E00023002B09D128
:101810004FF0500383F31188BFF36F8FBFF34F8FE7
:101820003B62FEE73B68022B03D13B6BDB6B012B7A
:1018300001D1012300E00023002B09D14FF0500318
:1018400083F31188BFF36F8FBFF34F8F7B62FEE787
:1018500001F09AF90346002B02D17B68002B01D1DD
:10186000012300E00023002B09D14FF0500383F344
:101870001188BFF36F8FBFF34F8FBB62FEE7FFF797
:1018800017FD3B6B9A6B3B6BDB6B9A4202D33B6859
:10189000022B29D13A68B968386B00F035FAF86242
:1018A0003B6B5B6A002B10D03B6B2433184600F077
:1018B000B1FF0346002B13D03F4B4FF080521A600C
:1018C000BFF34F8FBFF36F8F0AE0FB6A002B07D087
:1018D000394B4FF080521A60BFF34F8FBFF36F8FB9
:1018E000FFF714FD012363E07B68002B03D1FFF7B2
:1018F0000DFD00235CE07B6B002B06D107F1140388
:10190000184600F0E9FF01237B63FFF7FFFC00F0BE
:1019100063FDFFF7CDFC3B6B93F844305BB2B3F152
:10192000FF3F03D13B6B002283F844203B6B93F8CD
:1019300045305BB2B3F1FF3F03D13B6B002283F82C
:101940004520FFF7E3FC3A1D07F114031146184642
:1019500000F0E6FF0346002B24D1386B00F0CCFAF0
:101960000346002B18D03B6B10337A68114618469B
:1019700000F002FF386B00F057FA00F03BFD034621
:10198000002B7FF47CAF0C4B4FF080521A60BFF3FA
:101990004F8FBFF36F8F72E7386B00F045FA00F09E
:1019A00029FD6CE7386B00F03FFA00F023FD0023BF
:1019B00018463837BD4680BD04ED00E080B58EB0D6
:1019C00000AFF860B9607A603B60FB683B633B6BDB
:1019D000002B09D14FF0500383F31188BFF36F8FB1
:1019E000BFF34F8F7B61FEE7BB68002B03D13B6BDE
:1019F0001B6C002B01D1012300E00023002B09D137
:101A00004FF0500383F31188BFF36F8FBFF34F8FF5
:101A1000BB61FEE73B68022B03D13B6BDB6B012B09
:101A200001D1012300E00023002B09D14FF0500326
:101A300083F31188BFF36F8FBFF34F8FFB61FEE716
:101A4000FFF708FDEFF311824FF0500383F3118885
:101A5000BFF36F8FBFF34F8F3A623B613B6ABB624C
:101A60003B6B9A6B3B6BDB6B9A4202D33B68022B5E
:101A70002CD13B6B93F8453087F827303A68B9682A
:101A8000386B00F041F997F92730B3F1FF3F12D1DD
:101A90003B6B5B6A002B16D03B6B2433184600F07F
:101AA000B9FE0346002B0ED07B68002B0BD07B6861
:101AB00001221A6007E097F827300133DBB25AB2EF
:101AC0003B6B83F8452001237B6301E000237B63AC
:101AD000BB6AFB62FB6A83F311887B6B184638375D
:101AE000BD4680BD80B58EB000AFF860B9607A6049
:101AF0003B6000237B63FB683B633B6B002B09D19E
:101B00004FF0500383F31188BFF36F8FBFF34F8FF4
:101B1000FB61FEE7BB68002B03D13B6B1B6C002B0A
:101B200001D1012300E00023002B09D14FF0500325
:101B300083F31188BFF36F8FBFF34F8F3B62FEE7D4
:101B400001F022F80346002B02D17B68002B01D163
:101B5000012300E00023002B09D14FF0500383F351
:101B60001188BFF36F8FBFF34F8F7B62FEE7FFF7E4
:101B70009FFB3B6B9B6BFB62FB6A002B46D03B6B76
:101B8000DB68BB62B968386B00F028F93B68002B52
:101B900021D1FB6A5A1E3B6B9A633B6B1B68002B7F
:101BA00004D101F009F902463B6B5A603B6B1B699B
:101BB000002B27D03B6B1033184600F02BFE03465A
:101BC000002B1FD04F4B4FF080521A60BFF34F8F46
:101BD000BFF36F8F16E03B6BBA6ADA603B6B5B6AF0
:101BE000002B0FD03B6B2433184600F013FE034646
:101BF000002B07D0434B4FF080521A60BFF34F8F3A
:101C0000BFF36F8FFFF782FB012377E07B68002B28
:101C100003D1FFF77BFB002370E07B6B002B06D129
:101C200007F11403184600F057FE01237B63FFF70A
:101C30006DFB00F0D1FBFFF73BFB3B6B93F84430AF
:101C40005BB2B3F1FF3F03D13B6B002283F844202A
:101C50003B6B93F845305BB2B3F1FF3F03D13B6B75
:101C6000002283F84520FFF751FB3A1D07F11403CA
:101C70001146184600F054FE0346002B31D1386B54
:101C800000F024F90346002B25D03B6B1B68002B8A
:101C900008D1FFF70DFB3B6B5B68184600F092FF25
:101CA000FFF734FB3B6B24337A681146184600F08B
:101CB00063FD386B00F0B8F800F09CFB0346002B86
:101CC0007FF455AF0F4B4FF080521A60BFF34F8F28
:101CD000BFF36F8F4BE7386B00F0A6F800F08AFB7C
:101CE00045E7386B00F0A0F800F084FB386B00F09B
:101CF000EDF80346002B3FF43AAF0023184638377F
:101D0000BD4680BD04ED00E080B586B000AFF86050
:101D1000B9607A6000237B61FB689B6B3B61FB6869
:101D20001B6C002B0DD1FB681B68002B4DD1FB6891
:101D30005B68184600F0BCFF7861FB6800225A60BF
:101D400043E07B68002B19D1FB689868FB681B6C2B
:101D50001A46B968FEF75AFAFB689A68FB681B6C6A
:101D60001A44FB689A60FB689A68FB685B689A4251
:101D70002BD3FB681A68FB689A6026E0FB68D8687A
:101D8000FB681B6C1A46B968FEF740FAFB68DA6814
:101D9000FB681B6C5B421A44FB68DA60FB68DA681C
:101DA000FB681B689A4207D2FB685A68FB681B6C89
:101DB0005B421A44FB68DA607B68022B05D13B6901
:101DC000002B02D03B69013B3B613B695A1CFB681D
:101DD0009A637B6918461837BD4680BD80B582B0CE
:101DE00000AF786039607B681B6C002B18D07B6873
:101DF000DA687B681B6C1A447B68DA607B68DA6897
:101E00007B685B689A4203D37B681A687B68DA60F8
:101E10007B68D9687B681B6C1A463868FEF7F6F950
:101E200000BF0837BD4680BD80B584B000AF786084
:101E3000FFF73EFA7B6893F84530FB7311E07B684F
:101E40005B6A002B12D07B682433184600F0E2FC5A
:101E50000346002B01D000F0C1FDFB7B013BDBB250
:101E6000FB7397F90F30002BE9DC00E000BF7B68C3
:101E7000FF2283F84520FFF749FAFFF719FA7B683C
:101E800093F84430BB7311E07B681B69002B12D0C0
:101E90007B681033184600F0BDFC0346002B01D0D0
:101EA00000F09CFDBB7B013BDBB2BB7397F90E30AE
:101EB000002BE9DC00E000BF7B68FF2283F84420B0
:101EC000FFF724FA00BF1037BD4680BD80B584B04F
:101ED00000AF7860FFF7ECF97B689B6B002B02D1B9
:101EE0000123FB6001E00023FB60FFF70FFAFB68B2
:101EF00018461037BD4680BD80B584B000AF78600D
:101F0000FFF7D6F97B689A6B7B68DB6B9A4202D14C
:101F10000123FB6001E00023FB60FFF7F7F9FB689A
:101F200018461037BD4680BD80B485B000AF7860DC
:101F300039600023FB6014E00E4AFB6852F833302E
:101F4000002B0BD10B49FB683A6841F83320094A52
:101F5000FB68DB0013447A685A6005E0FB680133D4
:101F6000FB60FB68072BE7D900BF1437BD465DF85F
:101F7000047B7047CC31012080B586B000AFF8609B
:101F8000B9607A60FB687B61FFF792F97B6993F82F
:101F900044305BB2B3F1FF3F03D17B69002283F889
:101FA00044207B6993F845305BB2B3F1FF3F03D126
:101FB0007B69002283F84520FFF7A8F97B699B6BBA
:101FC000002B06D17B6924337A68B968184600F083
:101FD000F7FB7869FFF728FF00BF1837BD4680BDC3
:101FE00080B58CB004AFF860B9603B601346FB80ED
:101FF000FB889B001846FEF761FF78617B69002B28
:102000000ED05820FEF75AFFF861FB69002B03D071
:10201000FB697A691A6305E07869FEF7DDFF01E084
:102020000023FB61FB69002B13D0FA880023039384
:10203000FB690293FB6A0193BB6A00933B68B96832
:10204000F86800F00FF8F86900F092F80123BB611E
:1020500002E04FF0FF33BB61BB6918462037BD4635
:1020600080BD00BF80B588B000AFF860B9607A600D
:102070003B603B6B186B7B689B001A46A52101F007
:10208000E1F93B6B1A6B7B6803F18043013B9B00DA
:102090001344BB61BB6923F00703BB61BB6903F059
:1020A0000703002B09D04FF0500383F31188BFF3CF
:1020B0006F8FBFF34F8F7B61FEE70023FB6112E060
:1020C000BA68FB69134419783A6BFB6913443433DB
:1020D0000A461A70BA68FB6913441B78002B06D0B5
:1020E000FB690133FB61FB69092BE9D900E000BF03
:1020F0003B6B002283F83D20BB6A042B01D90423EB
:10210000BB623B6BBA6ADA623B6BBA6A9A643B6B3E
:102110000022DA643B6B04331846FFF7F9F93B6B96
:1021200018331846FFF7F4F93B6B3A6B1A61BB6A38
:10213000C3F105023B6B9A613B6B3A6B5A623B6B96
:1021400000221A653B6B002283F854203A68F96834
:10215000B869FEF7A5FF02463B6B1A60FB6A002BCD
:1021600002D0FB6A3A6B1A6000BF2037BD4680BDC3
:1021700080B582B000AF7860FFF79AF82C4B1B68EF
:1021800001332B4A13602B4B1B68002B09D1294AC2
:102190007B681360264B1B68012B10D100F042FCBA
:1021A0000DE0254B1B68002B09D1224B1B68DA6A16
:1021B0007B68DB6A9A4202D81E4A7B6813601F4B19
:1021C0001B6801331D4A13601C4B1A687B681A6434
:1021D0007B68DB6A01229A40194B1B681343184A3B
:1021E00013607B68DA6A13469B0013449B00154A10
:1021F0001A447B68043319461046FFF797F9FFF736
:1022000085F80D4B1B68002B0ED00A4B1B68DA6A51
:102210007B68DB6A9A4207D20B4B4FF080521A6000
:10222000BFF34F8FBFF36F8F00BF0837BD4680BD30
:1022300058310120803001206431012074310120A7
:10224000603101208430012004ED00E080B58AB0C7
:1022500000AF7860396000237B627B68002B09D176
:102260004FF0500383F31188BFF36F8FBFF34F8F8D
:10227000FB60FEE73B68002B09D14FF0500383F36E
:102280001188BFF36F8FBFF34F8F3B61FEE7294B80
:102290001B68002B09D04FF0500383F31188BFF364
:1022A0006F8FBFF34F8F7B61FEE700F095F8224BF5
:1022B0001B683B627B681A683B681344FB617B6860
:1022C0001A683B6A9A420BD97B681A68FB699A4282
:1022D00011D9FA693B6A9A420DD901237B620AE05F
:1022E0007B681A68FB699A4203D8FA693B6A9A428A
:1022F00001D901237B627B68FA691A607B6A002B33
:1023000006D0FA693B6AD31A0021184600F068FD2E
:1023100000F070F8B861BB69002B07D1074B4FF094
:1023200080521A60BFF34F8FBFF36F8F00BF283703
:10233000BD4680BD803101205C31012004ED00E00C
:1023400080B586B002AF1E4B01930023009300239B
:1023500082221C491C48FFF743FEF860FB68012BF2
:1023600002D100F0A3FDF860FB68012B15D14FF0FE
:10237000500383F31188BFF36F8FBFF34F8F7B60E0
:10238000124B4FF0FF321A60114B01221A60114BB1
:1023900000221A60FEF700FF0DE0FB68B3F1FF3F7B
:1023A00009D14FF0500383F31188BFF36F8FBFF350
:1023B0004F8FBB60FEE700BF1037BD4680BD00BF3A
:1023C0007C310120EC350008F52900087831012026
:1023D000643101205C31012080B400AF044B1B68E4
:1023E0000133034A136000BFBD465DF8047B7047AC
:1023F0008031012080B584B000AF0023FB60002352
:10240000BB60414B1B68002B09D14FF0500383F395
:102410001188BFF36F8FBFF34F8F3B60FEE7FEF76E
:1024200047FF394B1B68013B374A1360364B1B682B
:10243000002B61D1354B1B68002B5DD02EE0344B57
:10244000DB68DB68FB60FB6818331846FFF7CCF8E5
:10245000FB6804331846FFF7C7F8FB68DB6A012204
:102460009A402C4B1B6813432A4A1360FB68DA6AB4
:1024700013469B0013449B00274A1A44FB6804330D
:1024800019461046FFF752F8FB68DA6A234B1B68BF
:10249000DB6A9A4202D3224B01221A601C4B1B6852
:1024A000002BCCD1FB68002B01D000F047FB1D4B6B
:1024B0001B687B607B68002B10D000F047F8034658
:1024C000002B02D0164B01221A607B68013B7B6017
:1024D0007B68002BF1D1134B00221A60104B1B6854
:1024E000002B09D00123BB600F4B4FF080521A60C4
:1024F000BFF34F8FBFF36F8FFEF708FFBB6818461F
:102500001037BD4680BD00BF803101205831012009
:1025100018310120603101208430012080300120F9
:102520006C3101206831012004ED00E080B483B0FB
:1025300000AF054B1B687B607B6818460C37BD46B7
:102540005DF8047B704700BF5C31012080B586B028
:1025500000AF00237B61504B1B68002B40F08C8048
:102560004E4B1B6801333B614C4A3B6913603B692E
:10257000002B1FD14A4B1B681B68002B09D04FF062
:10258000500383F31188BFF36F8FBFF34F8F3B600E
:10259000FEE7434B1B68FB60424B1B68404A1360DD
:1025A000404AFB681360404B1B6801333E4A13608E
:1025B00000F0C4FA3D4B1B683A699A424DD3384B40
:1025C0001B681B68002B01D1012300E00023002BB6
:1025D00004D0364B4FF0FF321A603EE0304B1B68A0
:1025E000DB68DB68BB60BB685B687B603A697B6803
:1025F0009A4203D22D4A7B6813602EE0BB680433F5
:102600001846FEF7F1FFBB689B6A002B04D0BB683D
:1026100018331846FEF7E8FFBB68DB6A01229A40D0
:10262000234B1B681343224A1360BB68DA6A1346C4
:102630009B0013449B001F4A1A44BB68043319468D
:102640001046FEF773FFBB68DA6A1B4B1B68DB6A38
:102650009A42B4D301237B61B1E7174B1B68DA6A56
:10266000144913469B0013449B000B441B68012B29
:1026700007D901237B6104E0104B1B6801330F4A2B
:1026800013600F4B1B68002B01D001237B617B691A
:1026900018461837BD4680BD803101205C310120CD
:1026A00010310120143101207031012078310120D6
:1026B0006031012084300120803001206831012008
:1026C0006C31012080B487B000AF264B1B68002B13
:1026D00003D0254B01221A603EE0234B00221A60F2
:1026E000224B1B68BB60BB68B3FA83F3FB71FB79B9
:1026F000C3F11F033B611E493A6913469B00134413
:102700009B000B441B68002B09D14FF0500383F34F
:102710001188BFF36F8FBFF34F8F7B61FEE73A697C
:1027200013469B0013449B00114A1344FB60FB6853
:102730005B685A68FB685A60FB685A68FB68083334
:102740009A4204D1FB685B685A68FB685A60FB6870
:102750005B68DB68074A136000BF1C37BD465DF845
:10276000047B7047803101206C31012060310120F1
:10277000843001208030012080B584B000AF7860C3
:1027800039607B68002B09D14FF0500383F3118827
:10279000BFF36F8FBFF34F8FFB60FEE7074B1B68E4
:1027A000183319467868FEF7E5FE0121386800F015
:1027B00017FB00BF1037BD4680BD00BF8030012031
:1027C00080B586B000AFF860B9607A60FB68002B16
:1027D00009D14FF0500383F31188BFF36F8FBFF31C
:1027E0004F8F7B61FEE70A4B1B6818331946F86868
:1027F000FEF79CFE7B68002B02D04FF0FF33BB60DE
:102800007968B86800F0ECFA00BF1837BD4680BDA3
:102810008030012080B586B000AF78607B68DB68CF
:10282000DB683B613B69002B09D14FF0500383F318
:102830001188BFF36F8FBFF34F8FFB60FEE73B69DB
:1028400018331846FEF7D0FE1D4B1B68002B1CD119
:102850003B6904331846FEF7C7FE3B69DB6A012279
:102860009A40184B1B681343164A13603B69DA6A97
:1028700013469B0013449B00134A1A443B690433DC
:1028800019461046FEF752FE05E03B69183319461B
:102890000E48FEF74BFE3B69DA6A0D4B1B68DB6A9C
:1028A0009A4205D901237B610A4B01221A6001E09B
:1028B00000237B617B6918461837BD4680BD00BF89
:1028C0008031012060310120843001201831012045
:1028D000803001206C31012080B485B000AF786079
:1028E0007B68002B09D14FF0500383F31188BFF3AD
:1028F0006F8FBFF34F8FFB60FEE7074B1A687B6853
:102900001A60064B1A687B685A6000BF1437BD46D0
:102910005DF8047B704700BF703101205C310120FD
:1029200080B586B000AF786039607B68002B09D134
:102930004FF0500383F31188BFF36F8FBFF34F8FB6
:10294000BB60FEE73B68002B09D14FF0500383F3D7
:102950001188BFF36F8FBFF34F8FFB60FEE7FEF769
:10296000A7FC1C4B1B683B613B681B68B3F1FF3F36
:1029700002D100237B6126E07B681A68164B1B6836
:102980009A4207D07B685A683B699A4202D8012371
:102990007B6118E07B685B683A69D21A3B681B6808
:1029A0009A420ED23B681A687B6859683B69CB1A19
:1029B0001A443B681A607868FFF78EFF00237B613A
:1029C00001E001237B61FEF7A1FC7B691846183703
:1029D000BD4680BD5C3101207031012080B400AF64
:1029E000034B01221A6000BFBD465DF8047B7047AF
:1029F0006C31012080B582B000AF786000F052F8F1
:102A0000064B1B68012BF9D9054B4FF080521A6019
:102A1000BFF34F8FBFF36F8FF0E700BF843001200B
:102A200004ED00E080B582B000AF00237B600CE0D5
:102A30007A6813469B0013449B00124A13441846BD
:102A4000FEF746FD7B6801337B607B68042BEFD982
:102A50000D48FEF73DFD0D48FEF73AFD0C48FEF728
:102A600037FD0C48FEF734FD0B48FEF731FD0B4BEC
:102A7000054A1A600A4B054A1A6000BF0837BD466E
:102A800080BD00BF84300120E8300120FC300120EF
:102A9000183101202C310120443101201031012056
:102AA0001431012080B582B000AF28E0FFF794FC1C
:102AB000174B1B68002B0CBF01230023DBB27B608C
:102AC000FFF798FC7B68002B19D1FEF7F1FB104B48
:102AD000DB68DB683B603B6804331846FEF784FD27
:102AE0000C4B1B68013B0B4A13600B4B1B68013BF3
:102AF000094A1360FEF70AFC386800F00FF8064B2D
:102B00001B68002BD2D100BF0837BD4680BD00BF77
:102B10002C310120583101204031012080B582B094
:102B200000AF78607B681B6B1846FEF755FA786833
:102B3000FEF752FA00BF0837BD4680BD80B483B0AF
:102B400000AF0F4B1B681B68002B01D1012300E075
:102B50000023002B04D00B4B4FF0FF321A6008E02B
:102B6000074B1B68DB68DB687B607B685B68054A3A
:102B7000136000BF0C37BD465DF8047B704700BF93
:102B8000103101207831012080B483B000AF0B4BAD
:102B90001B68002B02D101237B6008E0084B1B68F7
:102BA000002B02D102237B6001E000237B607B6865
:102BB00018460C37BD465DF8047B70476431012030
:102BC0008031012080B584B000AF78607B68FB6005
:102BD0007B68002B62D0FB68DA6A324B1B68DB6AC9
:102BE0009A425BD2FB689B69002B06DB2D4B1B686E
:102BF000DB6AC3F10502FB689A61FB685969FB68EF
:102C0000DA6A13469B0013449B00274A13449942F7
:102C100001D1012300E00023002B3AD0FB680433EC
:102C20001846FEF7E1FC0346002B15D1FB68DA6A73
:102C30001D4913469B0013449B000B441B68002B4B
:102C40000AD1FB68DB6A012202FA03F3DA43174B6D
:102C50001B681340154A1360124B1B68DA6AFB6845
:102C6000DA62FB68DB6A01229A40104B1B6813434F
:102C70000E4A1360FB68DA6A13469B0013449B00FC
:102C8000094A1A44FB68043319461046FEF74EFC05
:102C900004E0044B1B68DA6AFB68DA6200BF103795
:102CA000BD4680BD8030012084300120603101208C
:102CB00080B586B000AF78607B683B6100237B61A4
:102CC0007B68002B6CD0394B1B683A699A4209D05B
:102CD0004FF0500383F31188BFF36F8FBFF34F8F13
:102CE000BB60FEE73B69DB6C002B09D14FF0500362
:102CF00083F31188BFF36F8FBFF34F8FFB60FEE745
:102D00003B69DB6C5A1E3B69DA643B69DA6A3B69F2
:102D10009B6C9A4244D03B69DB6C002B40D13B69F1
:102D200004331846FEF760FC0346002B15D13B69BF
:102D3000DA6A1F4913469B0013449B000B441B682F
:102D4000002B0AD13B69DB6A012202FA03F3DA4362
:102D5000184B1B681340174A13603B699A6C3B6918
:102D6000DA623B69DB6AC3F105023B699A613B6940
:102D7000DB6A01229A400F4B1B6813430D4A136014
:102D80003B69DA6A13469B0013449B00084A1A44C5
:102D90003B69043319461046FEF7C8FB01237B61EB
:102DA0007B6918461837BD4680BD00BF80300120C2
:102DB000843001206031012080B400AF074B1B68D4
:102DC000002B04D0054B1B68DA6C0132DA64034B2C
:102DD0001B681846BD465DF8047B704780300120B3
:102DE00080B584B000AF78603960294B1B68FB6008
:102DF000284B1B6804331846FEF7F6FB0346002BEE
:102E00000BD1244B1B68DB6A012202FA03F3DA437D
:102E1000214B1B681340204A13607B68B3F1FF3FCE
:102E20000AD13B68002B07D01A4B1B6804331946A4
:102E30001A48FEF77BFB26E0FA687B681344BB6008
:102E4000144B1B68BA685A60BA68FB689A4209D288
:102E5000134B1A680F4B1B68043319461046FEF7D4
:102E600089FB10E00F4B1A680A4B1B6804331946A4
:102E70001046FEF77FFB0C4B1B68BA689A4202D2E1
:102E8000094ABB68136000BF1037BD4680BD00BF54
:102E90005C3101208030012060310120443101206B
:102EA00014310120103101207831012080B584B027
:102EB00002AF00237B6000F08FFA114B1B68002BE0
:102EC0000BD0104B01930223009300234FF4827226
:102ED0000D490E48FFF784F878607B68002B09D114
:102EE0004FF0500383F31188BFF36F8FBFF34F8F01
:102EF0003B60FEE77B6818460837BD4680BD00BFD3
:102F0000B4310120B8310120F4350008293000081F
:102F100080B58AB000AFF860B9607A603B6000238A
:102F20007B62FB68002B09D14FF0500383F31188BB
:102F3000BFF36F8FBFF34F8F3B62FEE7194B1B68E8
:102F4000002B2AD0BB687B617B68BB61FB68FB619F
:102F5000BB68052B18DCFFF717FE0346022B09D1CF
:102F6000104B186807F1140100233A6BFEF72CFC94
:102F7000786212E00B4B186807F11401002300225D
:102F8000FEF722FC786208E0064B186807F114018E
:102F900000233A68FEF712FD78627B6A18462837EC
:102FA000BD4680BDB431012080B588B002AF7860E5
:102FB00039601C4B1B68DB68DB687B617B69043311
:102FC0001846FEF711FB7B69DB69012B21D17B6978
:102FD0009A697B68D1187B683A68786900F0C8F80C
:102FE0000346002B15D00023009300237A680021AC
:102FF0007869FFF78DFF38613B69002B09D14FF0ED
:10300000500383F31188BFF36F8FBFF34F8FFB60C3
:10301000FEE77B695B6A7869984700BF1837BD4651
:1030200080BD00BFAC31012080B584B000AF7860B6
:1030300007F10803184600F057F8F860BB68194616
:10304000F86800F003F800F0D5F8F1E780B584B037
:1030500000AF78603960FFF7BFF907F10803184641
:1030600000F066F8F860BB68002B30D13B68002B9D
:103070000AD17A68FB689A4206D8FFF7BBF9F9686B
:103080007868FFF791FF24E03B68002B08D0134BD2
:103090001B681B68002B0CBF01230023DBB23B60C5
:1030A0000F4B18687A68FB68D31A3A681946FEF71E
:1030B00063FFFFF79FF90346002B0AD1094B4FF03E
:1030C00080521A60BFF34F8FBFF36F8F01E0FFF79D
:1030D00091F900BF1037BD4680BD00BFB03101205F
:1030E000B431012004ED00E080B485B000AF786019
:1030F0000E4B1B681B68002B0CBF01230023DBB2A7
:103100001A467B681A607B681B68002B05D1074B49
:103110001B68DB681B68FB6001E00023FB60FB6849
:1031200018461437BD465DF8047B7047AC3101206A
:1031300080B584B000AF7860FFF7F8F9F8600B4B0A
:103140001B68FA689A4205D200F0E6F87B68012213
:103150001A6002E07B6800221A60044AFB68136070
:10316000FB6818461037BD4680BD00BFBC3101204A
:1031700080B586B000AFF860B9607A603B6000232C
:103180007B61FB68BA685A60FB68FA681A61BA68C2
:103190007B689A4212D87A683B68D21AFB689B69AE
:1031A0009A4202D301237B611BE0104B1A68FB6833
:1031B000043319461046FEF7DDF912E07A683B68E1
:1031C0009A4206D2BA683B689A4202D301237B61D5
:1031D00007E0074B1A68FB68043319461046FEF7F0
:1031E000C9F97B6918461837BD4680BDB03101204A
:1031F000AC31012080B58CB002AF7AE0BB68002B07
:1032000077DB3B697B627B6A5B69002B04D07B6A5E
:1032100004331846FEF7E8F93B1D1846FFF788FF10
:103220003862BB68092B63D801A252F823F000BFB3
:10323000593200085932000859320008F3320008A8
:10324000B3320008E9320008593200085932000848
:10325000F3320008B3320008FA687B6A9B69D11820
:10326000FB683A6A786AFFF783FF0346002B40D079
:103270007B6A5B6A786A98477B6ADB69012B38D185
:10328000FA687B6A9B691A4400230093002300219B
:10329000786AFFF73DFEF861FB69002B29D14FF0FA
:1032A000500383F31188BFF36F8FBFF34F8F7B61A0
:1032B000FEE7FA687B6A9A617B6A9B69002B09D1F9
:1032C0004FF0500383F31188BFF36F8FBFF34F8F1D
:1032D000BB61FEE77B6A9A693B6AD1183B6A3A6A2E
:1032E000786AFFF745FF04E0786AFDF775FE00E0B5
:1032F00000BF084B186807F1080100230022FEF701
:10330000F1FB0346002B7FF479AF00BF2837BD46A1
:1033100080BD00BFB431012080B588B002AF44E069
:103320002B4B1B68DB681B687B61294B1B68DB68C8
:10333000DB683B613B6904331846FEF755F93B698E
:103340005B6A386998473B69DB69012B2DD13B6982
:103350009A697B691344FB60FA687B699A420ED9CB
:103360003B69FA685A603B693A691A61184B1A68F6
:103370003B69043319461046FEF7FCF815E00023BC
:10338000009300237A6900213869FFF7C1FDB86016
:10339000BB68002B09D14FF0500383F31188BFF3B2
:1033A0006F8FBFF34F8F3B60FEE7094B1B681B68B5
:1033B000002BB5D1064B1B687B60064B1B68044A8B
:1033C0001360044A7B68136000BF1837BD4680BD98
:1033D000AC310120B031012080B500AFFDF768FFAE
:1033E000124B1B68002B1DD11148FEF771F81148D4
:1033F000FEF76EF8104B0E4A1A60104B0D4A1A6019
:1034000000220C210A20FEF781F90246074B1A60C0
:10341000064B1B68002B05D0044B1B680849184657
:10342000FEF782FDFDF772FF00BF80BDB4310120C1
:103430008431012098310120AC310120B0310120CC
:10344000FC35000870B4840746D0541E002A41D0D1
:10345000CDB2034602E0621EE4B3144603F8015BFA
:103460009A07F8D1032C2ED9CDB245EA05250F2CA9
:1034700045EA054519D903F110022646103E0F2EE4
:1034800042F8105C42F80C5C42F8085C42F8045CBC
:1034900002F11002F2D8A4F1100222F00F0204F09F
:1034A0000F041032032C13440DD91E462246043A51
:1034B000032A46F8045BFAD8221F22F003020432E2
:1034C000134404F003042CB1C9B21C4403F8011BDB
:1034D000A342FBD170BC704714460346C2E700BF4D
:1034E000024B13B1024800F005B87047000000001D
:1034F00001350008002301461A46184600F014B8AA
:1035000038B5074D074C2C1BA41005D0013C55F8CD
:10351000043D9847002CF9D1BDE8384000F05CB874
:1035200014360008103600082DE9F047254C2568B0
:10353000D5F848410646884692469946C4B3606825
:103540001F2817DC431C76B104EB80050122C5F867
:1035500088A0D4F8881182401143022EC4F8881143
:10356000C5F808911ED00230636044F82080002026
:10357000BDE8F087144B03B34FF4C870AFF300807D
:103580000446D0B1D5F84831002780E88800C5F856
:10359000484138460123C4F88871C4F88C71002E64
:1035A000E1D0D1E7D4F88C110A43C4F88C21DAE7D2
:1035B00005F5A674C5F84841C1E74FF0FF30BDE8F6
:1035C000F08700BF0436000800000000F8B500BF17
:1035D000F8BC08BC9E467047F8B500BFF8BC08BCF4
:0435E0009E4670474C
:1035E4004C4544310000000049444C4500000000B3
:1035F400546D722053766300546D725100000000C4
:043604002000002082
:08360800E1340008D5010008BF
:04361000B1010008FC
:103614000095BA0A00000000000000000102030443
:103624000607080900A00000F82B0100AAAAAAAA0C
:10363400000000000C03002074030020DC030020C1
:103644000000000000000000000000000000000076
:103654000000000000000000000000000000000066
:103664000000000000000000000000000000000056
:103674000000000000000000000000000000000046
:103684000000000000000000000000000000000036
:103694000000000000000000000000000000000026
:1036A4000000000000000000000000000000000016
:1036B4000000000000000000000000000000000006
:1036C40000000000000000000000000000000000F6
:1036D40000000000000000000100000000000000E5
:1036E4000E33CDAB34126DE6ECDE05000B000000AA
:1036F40000000000000000000000000000000000C6
:1037040000000000000000000000000000000000B5
:1037140000000000000000000000000000000000A5
:103724000000000000000000000000000000000095
:0400000508000341AB
:00000001FF
